{"abi":[{"type":"constructor","inputs":[{"name":"admin","type":"address","internalType":"address"}],"stateMutability":"nonpayable"},{"type":"function","name":"DEFAULT_ADMIN_ROLE","inputs":[],"outputs":[{"name":"","type":"bytes32","internalType":"bytes32"}],"stateMutability":"view"},{"type":"function","name":"MINTER_ROLE","inputs":[],"outputs":[{"name":"","type":"bytes32","internalType":"bytes32"}],"stateMutability":"view"},{"type":"function","name":"approve","inputs":[{"name":"to","type":"address","internalType":"address"},{"name":"tokenId","type":"uint256","internalType":"uint256"}],"outputs":[],"stateMutability":"nonpayable"},{"type":"function","name":"balanceOf","inputs":[{"name":"owner","type":"address","internalType":"address"}],"outputs":[{"name":"","type":"uint256","internalType":"uint256"}],"stateMutability":"view"},{"type":"function","name":"getApproved","inputs":[{"name":"tokenId","type":"uint256","internalType":"uint256"}],"outputs":[{"name":"","type":"address","internalType":"address"}],"stateMutability":"view"},{"type":"function","name":"getRoleAdmin","inputs":[{"name":"role","type":"bytes32","internalType":"bytes32"}],"outputs":[{"name":"","type":"bytes32","internalType":"bytes32"}],"stateMutability":"view"},{"type":"function","name":"grantRole","inputs":[{"name":"role","type":"bytes32","internalType":"bytes32"},{"name":"account","type":"address","internalType":"address"}],"outputs":[],"stateMutability":"nonpayable"},{"type":"function","name":"hasRole","inputs":[{"name":"role","type":"bytes32","internalType":"bytes32"},{"name":"account","type":"address","internalType":"address"}],"outputs":[{"name":"","type":"bool","internalType":"bool"}],"stateMutability":"view"},{"type":"function","name":"isApprovedForAll","inputs":[{"name":"owner","type":"address","internalType":"address"},{"name":"operator","type":"address","internalType":"address"}],"outputs":[{"name":"","type":"bool","internalType":"bool"}],"stateMutability":"view"},{"type":"function","name":"mint","inputs":[{"name":"to","type":"address","internalType":"address"},{"name":"nid","type":"string","internalType":"string"},{"name":"assetTreeCid","type":"string","internalType":"string"},{"name":"royaltyReceiver","type":"address","internalType":"address"},{"name":"royaltyFee","type":"uint96","internalType":"uint96"}],"outputs":[{"name":"tokenId","type":"uint256","internalType":"uint256"}],"stateMutability":"nonpayable"},{"type":"function","name":"name","inputs":[],"outputs":[{"name":"","type":"string","internalType":"string"}],"stateMutability":"view"},{"type":"function","name":"nidOf","inputs":[{"name":"tokenId","type":"uint256","internalType":"uint256"}],"outputs":[{"name":"","type":"string","internalType":"string"}],"stateMutability":"view"},{"type":"function","name":"ownerOf","inputs":[{"name":"tokenId","type":"uint256","internalType":"uint256"}],"outputs":[{"name":"","type":"address","internalType":"address"}],"stateMutability":"view"},{"type":"function","name":"renounceRole","inputs":[{"name":"role","type":"bytes32","internalType":"bytes32"},{"name":"callerConfirmation","type":"address","internalType":"address"}],"outputs":[],"stateMutability":"nonpayable"},{"type":"function","name":"revokeRole","inputs":[{"name":"role","type":"bytes32","internalType":"bytes32"},{"name":"account","type":"address","internalType":"address"}],"outputs":[],"stateMutability":"nonpayable"},{"type":"function","name":"royaltyInfo","inputs":[{"name":"tokenId","type":"uint256","internalType":"uint256"},{"name":"salePrice","type":"uint256","internalType":"uint256"}],"outputs":[{"name":"receiver","type":"address","internalType":"address"},{"name":"amount","type":"uint256","internalType":"uint256"}],"stateMutability":"view"},{"type":"function","name":"safeTransferFrom","inputs":[{"name":"from","type":"address","internalType":"address"},{"name":"to","type":"address","internalType":"address"},{"name":"tokenId","type":"uint256","internalType":"uint256"}],"outputs":[],"stateMutability":"nonpayable"},{"type":"function","name":"safeTransferFrom","inputs":[{"name":"from","type":"address","internalType":"address"},{"name":"to","type":"address","internalType":"address"},{"name":"tokenId","type":"uint256","internalType":"uint256"},{"name":"data","type":"bytes","internalType":"bytes"}],"outputs":[],"stateMutability":"nonpayable"},{"type":"function","name":"setApprovalForAll","inputs":[{"name":"operator","type":"address","internalType":"address"},{"name":"approved","type":"bool","internalType":"bool"}],"outputs":[],"stateMutability":"nonpayable"},{"type":"function","name":"supportsInterface","inputs":[{"name":"interfaceId","type":"bytes4","internalType":"bytes4"}],"outputs":[{"name":"","type":"bool","internalType":"bool"}],"stateMutability":"view"},{"type":"function","name":"symbol","inputs":[],"outputs":[{"name":"","type":"string","internalType":"string"}],"stateMutability":"view"},{"type":"function","name":"tokenIdOf","inputs":[{"name":"nid","type":"string","internalType":"string"}],"outputs":[{"name":"","type":"uint256","internalType":"uint256"}],"stateMutability":"view"},{"type":"function","name":"tokenURI","inputs":[{"name":"tokenId","type":"uint256","internalType":"uint256"}],"outputs":[{"name":"","type":"string","internalType":"string"}],"stateMutability":"view"},{"type":"function","name":"transferFrom","inputs":[{"name":"from","type":"address","internalType":"address"},{"name":"to","type":"address","internalType":"address"},{"name":"tokenId","type":"uint256","internalType":"uint256"}],"outputs":[],"stateMutability":"nonpayable"},{"type":"function","name":"updateRoyalty","inputs":[{"name":"tokenId","type":"uint256","internalType":"uint256"},{"name":"receiver","type":"address","internalType":"address"},{"name":"feeNumerator","type":"uint96","internalType":"uint96"}],"outputs":[],"stateMutability":"nonpayable"},{"type":"event","name":"Approval","inputs":[{"name":"owner","type":"address","indexed":true,"internalType":"address"},{"name":"approved","type":"address","indexed":true,"internalType":"address"},{"name":"tokenId","type":"uint256","indexed":true,"internalType":"uint256"}],"anonymous":false},{"type":"event","name":"ApprovalForAll","inputs":[{"name":"owner","type":"address","indexed":true,"internalType":"address"},{"name":"operator","type":"address","indexed":true,"internalType":"address"},{"name":"approved","type":"bool","indexed":false,"internalType":"bool"}],"anonymous":false},{"type":"event","name":"AssetMinted","inputs":[{"name":"tokenId","type":"uint256","indexed":true,"internalType":"uint256"},{"name":"nid","type":"string","indexed":false,"internalType":"string"},{"name":"assetTreeCid","type":"string","indexed":false,"internalType":"string"},{"name":"to","type":"address","indexed":true,"internalType":"address"}],"anonymous":false},{"type":"event","name":"BatchMetadataUpdate","inputs":[{"name":"_fromTokenId","type":"uint256","indexed":false,"internalType":"uint256"},{"name":"_toTokenId","type":"uint256","indexed":false,"internalType":"uint256"}],"anonymous":false},{"type":"event","name":"MetadataUpdate","inputs":[{"name":"_tokenId","type":"uint256","indexed":false,"internalType":"uint256"}],"anonymous":false},{"type":"event","name":"RoleAdminChanged","inputs":[{"name":"role","type":"bytes32","indexed":true,"internalType":"bytes32"},{"name":"previousAdminRole","type":"bytes32","indexed":true,"internalType":"bytes32"},{"name":"newAdminRole","type":"bytes32","indexed":true,"internalType":"bytes32"}],"anonymous":false},{"type":"event","name":"RoleGranted","inputs":[{"name":"role","type":"bytes32","indexed":true,"internalType":"bytes32"},{"name":"account","type":"address","indexed":true,"internalType":"address"},{"name":"sender","type":"address","indexed":true,"internalType":"address"}],"anonymous":false},{"type":"event","name":"RoleRevoked","inputs":[{"name":"role","type":"bytes32","indexed":true,"internalType":"bytes32"},{"name":"account","type":"address","indexed":true,"internalType":"address"},{"name":"sender","type":"address","indexed":true,"internalType":"address"}],"anonymous":false},{"type":"event","name":"RoyaltyUpdated","inputs":[{"name":"tokenId","type":"uint256","indexed":true,"internalType":"uint256"},{"name":"receiver","type":"address","indexed":false,"internalType":"address"},{"name":"feeNumerator","type":"uint96","indexed":false,"internalType":"uint96"}],"anonymous":false},{"type":"event","name":"Transfer","inputs":[{"name":"from","type":"address","indexed":true,"internalType":"address"},{"name":"to","type":"address","indexed":true,"internalType":"address"},{"name":"tokenId","type":"uint256","indexed":true,"internalType":"uint256"}],"anonymous":false},{"type":"error","name":"AccessControlBadConfirmation","inputs":[]},{"type":"error","name":"AccessControlUnauthorizedAccount","inputs":[{"name":"account","type":"address","internalType":"address"},{"name":"neededRole","type":"bytes32","internalType":"bytes32"}]},{"type":"error","name":"AssetAlreadyRegistered","inputs":[{"name":"nid","type":"string","internalType":"string"}]},{"type":"error","name":"ERC2981InvalidDefaultRoyalty","inputs":[{"name":"numerator","type":"uint256","internalType":"uint256"},{"name":"denominator","type":"uint256","internalType":"uint256"}]},{"type":"error","name":"ERC2981InvalidDefaultRoyaltyReceiver","inputs":[{"name":"receiver","type":"address","internalType":"address"}]},{"type":"error","name":"ERC2981InvalidTokenRoyalty","inputs":[{"name":"tokenId","type":"uint256","internalType":"uint256"},{"name":"numerator","type":"uint256","internalType":"uint256"},{"name":"denominator","type":"uint256","internalType":"uint256"}]},{"type":"error","name":"ERC2981InvalidTokenRoyaltyReceiver","inputs":[{"name":"tokenId","type":"uint256","internalType":"uint256"},{"name":"receiver","type":"address","internalType":"address"}]},{"type":"error","name":"ERC721IncorrectOwner","inputs":[{"name":"sender","type":"address","internalType":"address"},{"name":"tokenId","type":"uint256","internalType":"uint256"},{"name":"owner","type":"address","internalType":"address"}]},{"type":"error","name":"ERC721InsufficientApproval","inputs":[{"name":"operator","type":"address","internalType":"address"},{"name":"tokenId","type":"uint256","internalType":"uint256"}]},{"type":"error","name":"ERC721InvalidApprover","inputs":[{"name":"approver","type":"address","internalType":"address"}]},{"type":"error","name":"ERC721InvalidOperator","inputs":[{"name":"operator","type":"address","internalType":"address"}]},{"type":"error","name":"ERC721InvalidOwner","inputs":[{"name":"owner","type":"address","internalType":"address"}]},{"type":"error","name":"ERC721InvalidReceiver","inputs":[{"name":"receiver","type":"address","internalType":"address"}]},{"type":"error","name":"ERC721InvalidSender","inputs":[{"name":"sender","type":"address","internalType":"address"}]},{"type":"error","name":"ERC721NonexistentToken","inputs":[{"name":"tokenId","type":"uint256","internalType":"uint256"}]},{"type":"error","name":"InvalidNid","inputs":[]},{"type":"error","name":"InvalidRecipient","inputs":[]},{"type":"error","name":"InvalidRoyaltyReceiver","inputs":[]},{"type":"error","name":"NidNotRegistered","inputs":[{"name":"nid","type":"string","internalType":"string"}]},{"type":"error","name":"NotTokenHolder","inputs":[{"name":"tokenId","type":"uint256","internalType":"uint256"}]},{"type":"error","name":"RoyaltyFeeTooHigh","inputs":[{"name":"feeNumerator","type":"uint96","internalType":"uint96"}]},{"type":"error","name":"TokenNotFound","inputs":[{"name":"tokenId","type":"uint256","internalType":"uint256"}]}],"bytecode":{"object":"0x608060405234801561000f575f5ffd5b50604051613dd4380380613dd483398181016040528101906100319190610296565b6040518060400160405280600981526020017f5720437573746f647900000000000000000000000000000000000000000000008152506040518060400160405280600881526020017f57435553544f4459000000000000000000000000000000000000000000000000815250815f90816100ab91906104fe565b5080600190816100bb91906104fe565b5050506100d05f5f1b826100d760201b60201c565b50506105cd565b5f6100e883836101cd60201b60201c565b6101c357600160095f8581526020019081526020015f205f015f8473ffffffffffffffffffffffffffffffffffffffff1673ffffffffffffffffffffffffffffffffffffffff1681526020019081526020015f205f6101000a81548160ff02191690831515021790555061016061023160201b60201c565b73ffffffffffffffffffffffffffffffffffffffff168273ffffffffffffffffffffffffffffffffffffffff16847f2f8788117e7eff1d82e926ec794901d17c78024a50270940304540a733656f0d60405160405180910390a4600190506101c7565b5f90505b92915050565b5f60095f8481526020019081526020015f205f015f8373ffffffffffffffffffffffffffffffffffffffff1673ffffffffffffffffffffffffffffffffffffffff1681526020019081526020015f205f9054906101000a900460ff16905092915050565b5f33905090565b5f5ffd5b5f73ffffffffffffffffffffffffffffffffffffffff82169050919050565b5f6102658261023c565b9050919050565b6102758161025b565b811461027f575f5ffd5b50565b5f815190506102908161026c565b92915050565b5f602082840312156102ab576102aa610238565b5b5f6102b884828501610282565b91505092915050565b5f81519050919050565b7f4e487b71000000000000000000000000000000000000000000000000000000005f52604160045260245ffd5b7f4e487b71000000000000000000000000000000000000000000000000000000005f52602260045260245ffd5b5f600282049050600182168061033c57607f821691505b60208210810361034f5761034e6102f8565b5b50919050565b5f819050815f5260205f209050919050565b5f6020601f8301049050919050565b5f82821b905092915050565b5f600883026103b17fffffffffffffffffffffffffffffffffffffffffffffffffffffffffffffffff82610376565b6103bb8683610376565b95508019841693508086168417925050509392505050565b5f819050919050565b5f819050919050565b5f6103ff6103fa6103f5846103d3565b6103dc565b6103d3565b9050919050565b5f819050919050565b610418836103e5565b61042c61042482610406565b848454610382565b825550505050565b5f5f905090565b610443610434565b61044e81848461040f565b505050565b5b81811015610471576104665f8261043b565b600181019050610454565b5050565b601f8211156104b65761048781610355565b61049084610367565b8101602085101561049f578190505b6104b36104ab85610367565b830182610453565b50505b505050565b5f82821c905092915050565b5f6104d65f19846008026104bb565b1980831691505092915050565b5f6104ee83836104c7565b9150826002028217905092915050565b610507826102c1565b67ffffffffffffffff8111156105205761051f6102cb565b5b61052a8254610325565b610535828285610475565b5f60209050601f831160018114610566575f8415610554578287015190505b61055e85826104e3565b8655506105c5565b601f19841661057486610355565b5f5b8281101561059b57848901518255600182019150602085019450602081019050610576565b868310156105b857848901516105b4601f8916826104c7565b8355505b6001600288020188555050505b505050505050565b6137fa806105da5f395ff3fe608060405234801561000f575f5ffd5b5060043610610171575f3560e01c80636352211e116100dc578063a398d81911610095578063d17ea91e1161006f578063d17ea91e14610490578063d5391393146104c0578063d547741f146104de578063e985e9c5146104fa57610171565b8063a398d81914610414578063b88d4fde14610444578063c87b56dd1461046057610171565b80636352211e1461032c57806370a082311461035c57806391d148541461038c57806395d89b41146103bc578063a217fddf146103da578063a22cb465146103f857610171565b80632a55205a1161012e5780632a55205a1461025b5780632f2ff15d1461028c57806336568abe146102a85780633d7219c8146102c4578063417ac869146102f457806342842e0e1461031057610171565b806301ffc9a71461017557806306fdde03146101a5578063081812fc146101c3578063095ea7b3146101f357806323b872dd1461020f578063248a9ca31461022b575b5f5ffd5b61018f600480360381019061018a91906127bd565b61052a565b60405161019c9190612802565b60405180910390f35b6101ad61053b565b6040516101ba919061288b565b60405180910390f35b6101dd60048036038101906101d891906128de565b6105ca565b6040516101ea9190612948565b60405180910390f35b61020d6004803603810190610208919061298b565b6105e5565b005b610229600480360381019061022491906129c9565b6105fb565b005b61024560048036038101906102409190612a4c565b6106fa565b6040516102529190612a86565b60405180910390f35b61027560048036038101906102709190612a9f565b610717565b604051610283929190612aec565b60405180910390f35b6102a660048036038101906102a19190612b13565b610839565b005b6102c260048036038101906102bd9190612b13565b61085b565b005b6102de60048036038101906102d991906128de565b6108d6565b6040516102eb919061288b565b60405180910390f35b61030e60048036038101906103099190612b92565b6109ef565b005b61032a600480360381019061032591906129c9565b610b6b565b005b610346600480360381019061034191906128de565b610b8a565b6040516103539190612948565b60405180910390f35b61037660048036038101906103719190612be2565b610b9b565b6040516103839190612c0d565b60405180910390f35b6103a660048036038101906103a19190612b13565b610c51565b6040516103b39190612802565b60405180910390f35b6103c4610cb5565b6040516103d1919061288b565b60405180910390f35b6103e2610d45565b6040516103ef9190612a86565b60405180910390f35b610412600480360381019061040d9190612c50565b610d4b565b005b61042e60048036038101906104299190612cef565b610d61565b60405161043b9190612c0d565b60405180910390f35b61045e60048036038101906104599190612e62565b610dfb565b005b61047a600480360381019061047591906128de565b610e20565b604051610487919061288b565b60405180910390f35b6104aa60048036038101906104a59190612ee2565b610e32565b6040516104b79190612c0d565b60405180910390f35b6104c86110d2565b6040516104d59190612a86565b60405180910390f35b6104f860048036038101906104f39190612b13565b6110f6565b005b610514600480360381019061050f9190612f99565b611118565b6040516105219190612802565b60405180910390f35b5f610534826111a6565b9050919050565b60605f805461054990613004565b80601f016020809104026020016040519081016040528092919081815260200182805461057590613004565b80156105c05780601f10610597576101008083540402835291602001916105c0565b820191905f5260205f20905b8154815290600101906020018083116105a357829003601f168201915b5050505050905090565b5f6105d48261121f565b506105de826112a5565b9050919050565b6105f782826105f26112de565b6112e5565b5050565b5f73ffffffffffffffffffffffffffffffffffffffff168273ffffffffffffffffffffffffffffffffffffffff160361066b575f6040517f64a0ae920000000000000000000000000000000000000000000000000000000081526004016106629190612948565b60405180910390fd5b5f61067e83836106796112de565b6112f7565b90508373ffffffffffffffffffffffffffffffffffffffff168173ffffffffffffffffffffffffffffffffffffffff16146106f4578382826040517f64283d7b0000000000000000000000000000000000000000000000000000000081526004016106eb93929190613034565b60405180910390fd5b50505050565b5f60095f8381526020019081526020015f20600101549050919050565b5f5f5f60085f8681526020019081526020015f2090505f815f015f9054906101000a900473ffffffffffffffffffffffffffffffffffffffff1690505f825f0160149054906101000a90046bffffffffffffffffffffffff1690505f73ffffffffffffffffffffffffffffffffffffffff168273ffffffffffffffffffffffffffffffffffffffff16036107eb5760075f015f9054906101000a900473ffffffffffffffffffffffffffffffffffffffff16915060075f0160149054906101000a90046bffffffffffffffffffffffff1690505b5f6107f4611502565b6bffffffffffffffffffffffff16826bffffffffffffffffffffffff168861081c9190613096565b6108269190613104565b9050828195509550505050509250929050565b610842826106fa565b61084b8161150b565b610855838361151f565b50505050565b6108636112de565b73ffffffffffffffffffffffffffffffffffffffff168173ffffffffffffffffffffffffffffffffffffffff16146108c7576040517f6697b23200000000000000000000000000000000000000000000000000000000815260040160405180910390fd5b6108d18282611609565b505050565b60605f73ffffffffffffffffffffffffffffffffffffffff166108f8836116f3565b73ffffffffffffffffffffffffffffffffffffffff160361095057816040517f6caeb1300000000000000000000000000000000000000000000000000000000081526004016109479190612c0d565b60405180910390fd5b600a5f8381526020019081526020015f20805461096c90613004565b80601f016020809104026020016040519081016040528092919081815260200182805461099890613004565b80156109e35780601f106109ba576101008083540402835291602001916109e3565b820191905f5260205f20905b8154815290600101906020018083116109c657829003601f168201915b50505050509050919050565b3373ffffffffffffffffffffffffffffffffffffffff16610a0f84610b8a565b73ffffffffffffffffffffffffffffffffffffffff1614610a6757826040517f7af15292000000000000000000000000000000000000000000000000000000008152600401610a5e9190612c0d565b60405180910390fd5b5f73ffffffffffffffffffffffffffffffffffffffff168273ffffffffffffffffffffffffffffffffffffffff1603610acc576040517fa54a72c000000000000000000000000000000000000000000000000000000000815260040160405180910390fd5b612710816bffffffffffffffffffffffff161115610b2157806040517f9f64d3f3000000000000000000000000000000000000000000000000000000008152600401610b189190613143565b60405180910390fd5b610b2c83838361172c565b827f19dc52c4a51cd356464f1965b7872ac6388fb669cee13a05e1ded99b903127a38383604051610b5e92919061315c565b60405180910390a2505050565b610b8583838360405180602001604052805f815250610dfb565b505050565b5f610b948261121f565b9050919050565b5f5f73ffffffffffffffffffffffffffffffffffffffff168273ffffffffffffffffffffffffffffffffffffffff1603610c0c575f6040517f89c62b64000000000000000000000000000000000000000000000000000000008152600401610c039190612948565b60405180910390fd5b60035f8373ffffffffffffffffffffffffffffffffffffffff1673ffffffffffffffffffffffffffffffffffffffff1681526020019081526020015f20549050919050565b5f60095f8481526020019081526020015f205f015f8373ffffffffffffffffffffffffffffffffffffffff1673ffffffffffffffffffffffffffffffffffffffff1681526020019081526020015f205f9054906101000a900460ff16905092915050565b606060018054610cc490613004565b80601f0160208091040260200160405190810160405280929190818152602001828054610cf090613004565b8015610d3b5780601f10610d1257610100808354040283529160200191610d3b565b820191905f5260205f20905b815481529060010190602001808311610d1e57829003601f168201915b5050505050905090565b5f5f1b81565b610d5d610d566112de565b83836118db565b5050565b5f5f8383604051602001610d769291906131b1565b604051602081830303815290604052805190602001209050600b5f8281526020019081526020015f205f9054906101000a900460ff16610def5783836040517f7cbe2ebd000000000000000000000000000000000000000000000000000000008152600401610de69291906131f5565b60405180910390fd5b805f1c91505092915050565b610e068484846105fb565b610e1a610e116112de565b85858585611ab4565b50505050565b6060610e2b82611c60565b9050919050565b5f7f9f2df0fed2c77648de5860a4cc508cd0818c85b8b8a1ab4ceeef8d981c8956a6610e5d8161150b565b5f73ffffffffffffffffffffffffffffffffffffffff168973ffffffffffffffffffffffffffffffffffffffff1603610ec2576040517f9c8d2cd200000000000000000000000000000000000000000000000000000000815260040160405180910390fd5b5f8888905003610efe576040517fa7bdd8d500000000000000000000000000000000000000000000000000000000815260040160405180910390fd5b612710836bffffffffffffffffffffffff161115610f5357826040517f9f64d3f3000000000000000000000000000000000000000000000000000000008152600401610f4a9190613143565b60405180910390fd5b5f8888604051602001610f679291906131b1565b604051602081830303815290604052805190602001209050805f1c9250600b5f8281526020019081526020015f205f9054906101000a900460ff1615610fe65788886040517f6daa6b92000000000000000000000000000000000000000000000000000000008152600401610fdd9291906131f5565b60405180910390fd5b6001600b5f8381526020019081526020015f205f6101000a81548160ff0219169083151502179055506110198a84611cdc565b61104483888860405160200161103092919061323d565b604051602081830303815290604052611cf9565b61104f83868661172c565b8888600a5f8681526020019081526020015f20918261106f92919061340e565b508973ffffffffffffffffffffffffffffffffffffffff16837f87e7daa2f4b8b3ff299877b47daec27e2de713302d0a29e8f291638e67f568148b8b8b8b6040516110bd94939291906134db565b60405180910390a35050979650505050505050565b7f9f2df0fed2c77648de5860a4cc508cd0818c85b8b8a1ab4ceeef8d981c8956a681565b6110ff826106fa565b6111088161150b565b6111128383611609565b50505050565b5f60055f8473ffffffffffffffffffffffffffffffffffffffff1673ffffffffffffffffffffffffffffffffffffffff1681526020019081526020015f205f8373ffffffffffffffffffffffffffffffffffffffff1673ffffffffffffffffffffffffffffffffffffffff1681526020019081526020015f205f9054906101000a900460ff16905092915050565b5f7f7965db0b000000000000000000000000000000000000000000000000000000007bffffffffffffffffffffffffffffffffffffffffffffffffffffffff1916827bffffffffffffffffffffffffffffffffffffffffffffffffffffffff19161480611218575061121782611d53565b5b9050919050565b5f5f61122a836116f3565b90505f73ffffffffffffffffffffffffffffffffffffffff168173ffffffffffffffffffffffffffffffffffffffff160361129c57826040517f7e2732890000000000000000000000000000000000000000000000000000000081526004016112939190612c0d565b60405180910390fd5b80915050919050565b5f60045f8381526020019081526020015f205f9054906101000a900473ffffffffffffffffffffffffffffffffffffffff169050919050565b5f33905090565b6112f28383836001611dcc565b505050565b5f5f611302846116f3565b90505f73ffffffffffffffffffffffffffffffffffffffff168373ffffffffffffffffffffffffffffffffffffffff161461134357611342818486611f8b565b5b5f73ffffffffffffffffffffffffffffffffffffffff168173ffffffffffffffffffffffffffffffffffffffff16146113ce576113825f855f5f611dcc565b600160035f8373ffffffffffffffffffffffffffffffffffffffff1673ffffffffffffffffffffffffffffffffffffffff1681526020019081526020015f205f82825403925050819055505b5f73ffffffffffffffffffffffffffffffffffffffff168573ffffffffffffffffffffffffffffffffffffffff161461144d57600160035f8773ffffffffffffffffffffffffffffffffffffffff1673ffffffffffffffffffffffffffffffffffffffff1681526020019081526020015f205f82825401925050819055505b8460025f8681526020019081526020015f205f6101000a81548173ffffffffffffffffffffffffffffffffffffffff021916908373ffffffffffffffffffffffffffffffffffffffff160217905550838573ffffffffffffffffffffffffffffffffffffffff168273ffffffffffffffffffffffffffffffffffffffff167fddf252ad1be2c89b69c2b068fc378daa952ba7f163c4a11628f55a4df523b3ef60405160405180910390a4809150509392505050565b5f612710905090565b61151c816115176112de565b61204e565b50565b5f61152a8383610c51565b6115ff57600160095f8581526020019081526020015f205f015f8473ffffffffffffffffffffffffffffffffffffffff1673ffffffffffffffffffffffffffffffffffffffff1681526020019081526020015f205f6101000a81548160ff02191690831515021790555061159c6112de565b73ffffffffffffffffffffffffffffffffffffffff168273ffffffffffffffffffffffffffffffffffffffff16847f2f8788117e7eff1d82e926ec794901d17c78024a50270940304540a733656f0d60405160405180910390a460019050611603565b5f90505b92915050565b5f6116148383610c51565b156116e9575f60095f8581526020019081526020015f205f015f8473ffffffffffffffffffffffffffffffffffffffff1673ffffffffffffffffffffffffffffffffffffffff1681526020019081526020015f205f6101000a81548160ff0219169083151502179055506116866112de565b73ffffffffffffffffffffffffffffffffffffffff168273ffffffffffffffffffffffffffffffffffffffff16847ff6391f5c32d9c69d2a47ea670b442974b53935d1edc7fd64eb21e047a839171b60405160405180910390a4600190506116ed565b5f90505b92915050565b5f60025f8381526020019081526020015f205f9054906101000a900473ffffffffffffffffffffffffffffffffffffffff169050919050565b5f611735611502565b6bffffffffffffffffffffffff16905080826bffffffffffffffffffffffff16111561179c578382826040517fdfd1fc1b00000000000000000000000000000000000000000000000000000000815260040161179393929190613544565b60405180910390fd5b5f73ffffffffffffffffffffffffffffffffffffffff168373ffffffffffffffffffffffffffffffffffffffff160361180e57835f6040517f969f0852000000000000000000000000000000000000000000000000000000008152600401611805929190613579565b60405180910390fd5b60405180604001604052808473ffffffffffffffffffffffffffffffffffffffff168152602001836bffffffffffffffffffffffff1681525060085f8681526020019081526020015f205f820151815f015f6101000a81548173ffffffffffffffffffffffffffffffffffffffff021916908373ffffffffffffffffffffffffffffffffffffffff1602179055506020820151815f0160146101000a8154816bffffffffffffffffffffffff02191690836bffffffffffffffffffffffff16021790555090505050505050565b5f73ffffffffffffffffffffffffffffffffffffffff168373ffffffffffffffffffffffffffffffffffffffff160361194b575f6040517fa9fbf51f0000000000000000000000000000000000000000000000000000000081526004016119429190612948565b60405180910390fd5b5f73ffffffffffffffffffffffffffffffffffffffff168273ffffffffffffffffffffffffffffffffffffffff16036119bb57816040517f5b08ba180000000000000000000000000000000000000000000000000000000081526004016119b29190612948565b60405180910390fd5b8060055f8573ffffffffffffffffffffffffffffffffffffffff1673ffffffffffffffffffffffffffffffffffffffff1681526020019081526020015f205f8473ffffffffffffffffffffffffffffffffffffffff1673ffffffffffffffffffffffffffffffffffffffff1681526020019081526020015f205f6101000a81548160ff0219169083151502179055508173ffffffffffffffffffffffffffffffffffffffff168373ffffffffffffffffffffffffffffffffffffffff167f17307eab39ab6107e8899845ad3d59bd9653f200f220920489ca2b5937696c3183604051611aa79190612802565b60405180910390a3505050565b5f8373ffffffffffffffffffffffffffffffffffffffff163b1115611c59578273ffffffffffffffffffffffffffffffffffffffff1663150b7a02868685856040518563ffffffff1660e01b8152600401611b1294939291906135f2565b6020604051808303815f875af1925050508015611b4d57506040513d601f19601f82011682018060405250810190611b4a9190613650565b60015b611bce573d805f8114611b7b576040519150601f19603f3d011682016040523d82523d5f602084013e611b80565b606091505b505f815103611bc657836040517f64a0ae92000000000000000000000000000000000000000000000000000000008152600401611bbd9190612948565b60405180910390fd5b805160208201fd5b63150b7a0260e01b7bffffffffffffffffffffffffffffffffffffffffffffffffffffffff1916817bffffffffffffffffffffffffffffffffffffffffffffffffffffffff191614611c5757836040517f64a0ae92000000000000000000000000000000000000000000000000000000008152600401611c4e9190612948565b60405180910390fd5b505b5050505050565b6060611c6b8261121f565b505f611c7561209f565b90505f611c81846120b5565b90505f825103611c95578092505050611cd7565b5f81511115611cc9578181604051602001611cb19291906136ab565b60405160208183030381529060405292505050611cd7565b611cd284612156565b925050505b919050565b611cf5828260405180602001604052805f8152506121bc565b5050565b8060065f8481526020019081526020015f209081611d1791906136ce565b507ff8e1a15aba9398e019f0b49df1a4fde98ee17ae345cb5f6b5e2c27f5033e8ce782604051611d479190612c0d565b60405180910390a15050565b5f7f2a55205a000000000000000000000000000000000000000000000000000000007bffffffffffffffffffffffffffffffffffffffffffffffffffffffff1916827bffffffffffffffffffffffffffffffffffffffffffffffffffffffff19161480611dc55750611dc4826121df565b5b9050919050565b8080611e0457505f73ffffffffffffffffffffffffffffffffffffffff168273ffffffffffffffffffffffffffffffffffffffff1614155b15611f36575f611e138461121f565b90505f73ffffffffffffffffffffffffffffffffffffffff168373ffffffffffffffffffffffffffffffffffffffff1614158015611e7d57508273ffffffffffffffffffffffffffffffffffffffff168173ffffffffffffffffffffffffffffffffffffffff1614155b8015611e905750611e8e8184611118565b155b15611ed257826040517fa9fbf51f000000000000000000000000000000000000000000000000000000008152600401611ec99190612948565b60405180910390fd5b8115611f3457838573ffffffffffffffffffffffffffffffffffffffff168273ffffffffffffffffffffffffffffffffffffffff167f8c5be1e5ebec7d5bd14f71427d1e84f3dd0314c0f7b2291e5b200ac8c7c3b92560405160405180910390a45b505b8360045f8581526020019081526020015f205f6101000a81548173ffffffffffffffffffffffffffffffffffffffff021916908373ffffffffffffffffffffffffffffffffffffffff16021790555050505050565b611f9683838361223f565b612049575f73ffffffffffffffffffffffffffffffffffffffff168373ffffffffffffffffffffffffffffffffffffffff160361200a57806040517f7e2732890000000000000000000000000000000000000000000000000000000081526004016120019190612c0d565b60405180910390fd5b81816040517f177e802f000000000000000000000000000000000000000000000000000000008152600401612040929190612aec565b60405180910390fd5b505050565b6120588282610c51565b61209b5780826040517fe2517d3f00000000000000000000000000000000000000000000000000000000815260040161209292919061379d565b60405180910390fd5b5050565b606060405180602001604052805f815250905090565b606060065f8381526020019081526020015f2080546120d390613004565b80601f01602080910402602001604051908101604052809291908181526020018280546120ff90613004565b801561214a5780601f106121215761010080835404028352916020019161214a565b820191905f5260205f20905b81548152906001019060200180831161212d57829003601f168201915b50505050509050919050565b60606121618261121f565b505f61216b61209f565b90505f8151116121895760405180602001604052805f8152506121b4565b80612193846122ff565b6040516020016121a49291906136ab565b6040516020818303038152906040525b915050919050565b6121c683836123c9565b6121da6121d16112de565b5f858585611ab4565b505050565b5f634906490660e01b7bffffffffffffffffffffffffffffffffffffffffffffffffffffffff1916827bffffffffffffffffffffffffffffffffffffffffffffffffffffffff191614806122385750612237826124bc565b5b9050919050565b5f5f73ffffffffffffffffffffffffffffffffffffffff168373ffffffffffffffffffffffffffffffffffffffff16141580156122f657508273ffffffffffffffffffffffffffffffffffffffff168473ffffffffffffffffffffffffffffffffffffffff1614806122b757506122b68484611118565b5b806122f557508273ffffffffffffffffffffffffffffffffffffffff166122dd836112a5565b73ffffffffffffffffffffffffffffffffffffffff16145b5b90509392505050565b60605f600161230d8461259d565b0190505f8167ffffffffffffffff81111561232b5761232a612d3e565b5b6040519080825280601f01601f19166020018201604052801561235d5781602001600182028036833780820191505090505b5090505f82602083010190505b6001156123be578080600190039150507f3031323334353637383961626364656600000000000000000000000000000000600a86061a8153600a85816123b3576123b26130d7565b5b0494505f850361236a575b819350505050919050565b5f73ffffffffffffffffffffffffffffffffffffffff168273ffffffffffffffffffffffffffffffffffffffff1603612439575f6040517f64a0ae920000000000000000000000000000000000000000000000000000000081526004016124309190612948565b60405180910390fd5b5f61244583835f6112f7565b90505f73ffffffffffffffffffffffffffffffffffffffff168173ffffffffffffffffffffffffffffffffffffffff16146124b7575f6040517f73c6ac6e0000000000000000000000000000000000000000000000000000000081526004016124ae9190612948565b60405180910390fd5b505050565b5f7f80ac58cd000000000000000000000000000000000000000000000000000000007bffffffffffffffffffffffffffffffffffffffffffffffffffffffff1916827bffffffffffffffffffffffffffffffffffffffffffffffffffffffff1916148061258657507f5b5e139f000000000000000000000000000000000000000000000000000000007bffffffffffffffffffffffffffffffffffffffffffffffffffffffff1916827bffffffffffffffffffffffffffffffffffffffffffffffffffffffff1916145b806125965750612595826126ee565b5b9050919050565b5f5f5f90507a184f03e93ff9f4daa797ed6e38ed64bf6a1f01000000000000000083106125f9577a184f03e93ff9f4daa797ed6e38ed64bf6a1f01000000000000000083816125ef576125ee6130d7565b5b0492506040810190505b6d04ee2d6d415b85acef81000000008310612636576d04ee2d6d415b85acef8100000000838161262c5761262b6130d7565b5b0492506020810190505b662386f26fc10000831061266557662386f26fc10000838161265b5761265a6130d7565b5b0492506010810190505b6305f5e100831061268e576305f5e1008381612684576126836130d7565b5b0492506008810190505b61271083106126b35761271083816126a9576126a86130d7565b5b0492506004810190505b606483106126d657606483816126cc576126cb6130d7565b5b0492506002810190505b600a83106126e5576001810190505b80915050919050565b5f7f01ffc9a7000000000000000000000000000000000000000000000000000000007bffffffffffffffffffffffffffffffffffffffffffffffffffffffff1916827bffffffffffffffffffffffffffffffffffffffffffffffffffffffff1916149050919050565b5f604051905090565b5f5ffd5b5f5ffd5b5f7fffffffff0000000000000000000000000000000000000000000000000000000082169050919050565b61279c81612768565b81146127a6575f5ffd5b50565b5f813590506127b781612793565b92915050565b5f602082840312156127d2576127d1612760565b5b5f6127df848285016127a9565b91505092915050565b5f8115159050919050565b6127fc816127e8565b82525050565b5f6020820190506128155f8301846127f3565b92915050565b5f81519050919050565b5f82825260208201905092915050565b8281835e5f83830152505050565b5f601f19601f8301169050919050565b5f61285d8261281b565b6128678185612825565b9350612877818560208601612835565b61288081612843565b840191505092915050565b5f6020820190508181035f8301526128a38184612853565b905092915050565b5f819050919050565b6128bd816128ab565b81146128c7575f5ffd5b50565b5f813590506128d8816128b4565b92915050565b5f602082840312156128f3576128f2612760565b5b5f612900848285016128ca565b91505092915050565b5f73ffffffffffffffffffffffffffffffffffffffff82169050919050565b5f61293282612909565b9050919050565b61294281612928565b82525050565b5f60208201905061295b5f830184612939565b92915050565b61296a81612928565b8114612974575f5ffd5b50565b5f8135905061298581612961565b92915050565b5f5f604083850312156129a1576129a0612760565b5b5f6129ae85828601612977565b92505060206129bf858286016128ca565b9150509250929050565b5f5f5f606084860312156129e0576129df612760565b5b5f6129ed86828701612977565b93505060206129fe86828701612977565b9250506040612a0f868287016128ca565b9150509250925092565b5f819050919050565b612a2b81612a19565b8114612a35575f5ffd5b50565b5f81359050612a4681612a22565b92915050565b5f60208284031215612a6157612a60612760565b5b5f612a6e84828501612a38565b91505092915050565b612a8081612a19565b82525050565b5f602082019050612a995f830184612a77565b92915050565b5f5f60408385031215612ab557612ab4612760565b5b5f612ac2858286016128ca565b9250506020612ad3858286016128ca565b9150509250929050565b612ae6816128ab565b82525050565b5f604082019050612aff5f830185612939565b612b0c6020830184612add565b9392505050565b5f5f60408385031215612b2957612b28612760565b5b5f612b3685828601612a38565b9250506020612b4785828601612977565b9150509250929050565b5f6bffffffffffffffffffffffff82169050919050565b612b7181612b51565b8114612b7b575f5ffd5b50565b5f81359050612b8c81612b68565b92915050565b5f5f5f60608486031215612ba957612ba8612760565b5b5f612bb6868287016128ca565b9350506020612bc786828701612977565b9250506040612bd886828701612b7e565b9150509250925092565b5f60208284031215612bf757612bf6612760565b5b5f612c0484828501612977565b91505092915050565b5f602082019050612c205f830184612add565b92915050565b612c2f816127e8565b8114612c39575f5ffd5b50565b5f81359050612c4a81612c26565b92915050565b5f5f60408385031215612c6657612c65612760565b5b5f612c7385828601612977565b9250506020612c8485828601612c3c565b9150509250929050565b5f5ffd5b5f5ffd5b5f5ffd5b5f5f83601f840112612caf57612cae612c8e565b5b8235905067ffffffffffffffff811115612ccc57612ccb612c92565b5b602083019150836001820283011115612ce857612ce7612c96565b5b9250929050565b5f5f60208385031215612d0557612d04612760565b5b5f83013567ffffffffffffffff811115612d2257612d21612764565b5b612d2e85828601612c9a565b92509250509250929050565b5f5ffd5b7f4e487b71000000000000000000000000000000000000000000000000000000005f52604160045260245ffd5b612d7482612843565b810181811067ffffffffffffffff82111715612d9357612d92612d3e565b5b80604052505050565b5f612da5612757565b9050612db18282612d6b565b919050565b5f67ffffffffffffffff821115612dd057612dcf612d3e565b5b612dd982612843565b9050602081019050919050565b828183375f83830152505050565b5f612e06612e0184612db6565b612d9c565b905082815260208101848484011115612e2257612e21612d3a565b5b612e2d848285612de6565b509392505050565b5f82601f830112612e4957612e48612c8e565b5b8135612e59848260208601612df4565b91505092915050565b5f5f5f5f60808587031215612e7a57612e79612760565b5b5f612e8787828801612977565b9450506020612e9887828801612977565b9350506040612ea9878288016128ca565b925050606085013567ffffffffffffffff811115612eca57612ec9612764565b5b612ed687828801612e35565b91505092959194509250565b5f5f5f5f5f5f5f60a0888a031215612efd57612efc612760565b5b5f612f0a8a828b01612977565b975050602088013567ffffffffffffffff811115612f2b57612f2a612764565b5b612f378a828b01612c9a565b9650965050604088013567ffffffffffffffff811115612f5a57612f59612764565b5b612f668a828b01612c9a565b94509450506060612f798a828b01612977565b9250506080612f8a8a828b01612b7e565b91505092959891949750929550565b5f5f60408385031215612faf57612fae612760565b5b5f612fbc85828601612977565b9250506020612fcd85828601612977565b9150509250929050565b7f4e487b71000000000000000000000000000000000000000000000000000000005f52602260045260245ffd5b5f600282049050600182168061301b57607f821691505b60208210810361302e5761302d612fd7565b5b50919050565b5f6060820190506130475f830186612939565b6130546020830185612add565b6130616040830184612939565b949350505050565b7f4e487b71000000000000000000000000000000000000000000000000000000005f52601160045260245ffd5b5f6130a0826128ab565b91506130ab836128ab565b92508282026130b9816128ab565b915082820484148315176130d0576130cf613069565b5b5092915050565b7f4e487b71000000000000000000000000000000000000000000000000000000005f52601260045260245ffd5b5f61310e826128ab565b9150613119836128ab565b925082613129576131286130d7565b5b828204905092915050565b61313d81612b51565b82525050565b5f6020820190506131565f830184613134565b92915050565b5f60408201905061316f5f830185612939565b61317c6020830184613134565b9392505050565b5f81905092915050565b5f6131988385613183565b93506131a5838584612de6565b82840190509392505050565b5f6131bd82848661318d565b91508190509392505050565b5f6131d48385612825565b93506131e1838584612de6565b6131ea83612843565b840190509392505050565b5f6020820190508181035f83015261320e8184866131c9565b90509392505050565b7f697066733a2f2f00000000000000000000000000000000000000000000000000815250565b5f61324782613217565b60078201915061325882848661318d565b91508190509392505050565b5f82905092915050565b5f819050815f5260205f209050919050565b5f6020601f8301049050919050565b5f82821b905092915050565b5f600883026132ca7fffffffffffffffffffffffffffffffffffffffffffffffffffffffffffffffff8261328f565b6132d4868361328f565b95508019841693508086168417925050509392505050565b5f819050919050565b5f61330f61330a613305846128ab565b6132ec565b6128ab565b9050919050565b5f819050919050565b613328836132f5565b61333c61333482613316565b84845461329b565b825550505050565b5f5f905090565b613353613344565b61335e81848461331f565b505050565b5b81811015613381576133765f8261334b565b600181019050613364565b5050565b601f8211156133c6576133978161326e565b6133a084613280565b810160208510156133af578190505b6133c36133bb85613280565b830182613363565b50505b505050565b5f82821c905092915050565b5f6133e65f19846008026133cb565b1980831691505092915050565b5f6133fe83836133d7565b9150826002028217905092915050565b6134188383613264565b67ffffffffffffffff81111561343157613430612d3e565b5b61343b8254613004565b613446828285613385565b5f601f831160018114613473575f8415613461578287013590505b61346b85826133f3565b8655506134d2565b601f1984166134818661326e565b5f5b828110156134a857848901358255600182019150602085019450602081019050613483565b868310156134c557848901356134c1601f8916826133d7565b8355505b6001600288020188555050505b50505050505050565b5f6040820190508181035f8301526134f48186886131c9565b905081810360208301526135098184866131c9565b905095945050505050565b5f61352e61352961352484612b51565b6132ec565b6128ab565b9050919050565b61353e81613514565b82525050565b5f6060820190506135575f830186612add565b6135646020830185613535565b6135716040830184612add565b949350505050565b5f60408201905061358c5f830185612add565b6135996020830184612939565b9392505050565b5f81519050919050565b5f82825260208201905092915050565b5f6135c4826135a0565b6135ce81856135aa565b93506135de818560208601612835565b6135e781612843565b840191505092915050565b5f6080820190506136055f830187612939565b6136126020830186612939565b61361f6040830185612add565b818103606083015261363181846135ba565b905095945050505050565b5f8151905061364a81612793565b92915050565b5f6020828403121561366557613664612760565b5b5f6136728482850161363c565b91505092915050565b5f6136858261281b565b61368f8185613183565b935061369f818560208601612835565b80840191505092915050565b5f6136b6828561367b565b91506136c2828461367b565b91508190509392505050565b6136d78261281b565b67ffffffffffffffff8111156136f0576136ef612d3e565b5b6136fa8254613004565b613705828285613385565b5f60209050601f831160018114613736575f8415613724578287015190505b61372e85826133f3565b865550613795565b601f1984166137448661326e565b5f5b8281101561376b57848901518255600182019150602085019450602081019050613746565b868310156137885784890151613784601f8916826133d7565b8355505b6001600288020188555050505b505050505050565b5f6040820190506137b05f830185612939565b6137bd6020830184612a77565b939250505056fea26469706673582212209f7141d9ca6b1fdc5856a7cf7dec91dc9777c5024a4d39ef97a157e88a77f88264736f6c634300081c0033","linkReferences":{}},"methodIdentifiers":{"DEFAULT_ADMIN_ROLE()":"a217fddf","MINTER_ROLE()":"d5391393","approve(address,uint256)":"095ea7b3","balanceOf(address)":"70a08231","getApproved(uint256)":"081812fc","getRoleAdmin(bytes32)":"248a9ca3","grantRole(bytes32,address)":"2f2ff15d","hasRole(bytes32,address)":"91d14854","isApprovedForAll(address,address)":"e985e9c5","mint(address,string,string,address,uint96)":"d17ea91e","name()":"06fdde03","nidOf(uint256)":"3d7219c8","ownerOf(uint256)":"6352211e","renounceRole(bytes32,address)":"36568abe","revokeRole(bytes32,address)":"d547741f","royaltyInfo(uint256,uint256)":"2a55205a","safeTransferFrom(address,address,uint256)":"42842e0e","safeTransferFrom(address,address,uint256,bytes)":"b88d4fde","setApprovalForAll(address,bool)":"a22cb465","supportsInterface(bytes4)":"01ffc9a7","symbol()":"95d89b41","tokenIdOf(string)":"a398d819","tokenURI(uint256)":"c87b56dd","transferFrom(address,address,uint256)":"23b872dd","updateRoyalty(uint256,address,uint96)":"417ac869"},"id":44}